:100000000C943E000C9453000C9453000C94530039
:100010000C9453000C9453000C9453000C94530014
:100020000C9453000C9453000C9453000C94530004
:100030000C9453000C9453000C9453000C945300F4
:100040000C9453000C9453000C9453000C945300E4
:100050000C9453000C9453000C9453000C945300D4
:100060000C9453000C9453000C9453000C945300C4
:100070000C9453000C9453000C94530011241FBE95
:10008000CFEFD8E0DEBFCDBF13E0A0E0B1E0E2EB00
:10009000FAE002C005900D92A830B107D9F70E948E
:1000A0006D020C9457050C940000FC018FE190E068
:1000B000918380838AE090E0938382839583848315
:1000C00082ED90E09783868382E890E09187808735
:1000D00084E690E093878287CF010C960C943302DC
:1000E000CF93DF93CDB7DEB7E7970FB6F894DEBFB7
:1000F0000FBECDBF9C0197E3E0E0F1E0BE016F5F72
:100100007F4FDB0101900D929A95E1F7FB01019081
:100110000020E9F73197AF01461B570BC9010C9638
:100120000E944A02E7960FB6F894DEBF0FBECDBF1D
:10013000DF91CF910895CF93DF9300D000D000D00E
:100140000F92CDB7DEB79C0197E0E7E3F1E0BE0187
:100150006F5F7F4FDB0101900D929A95E1F7FB01F4
:1001600001900020E9F73197AF01461B570BC901F9
:100170000C960E944A0227960FB6F894DEBF0FBE77
:10018000CDBFDF91CF910895CF93DF93CDB7DEB789
:10019000CC55D1090FB6F894DEBF0FBECDBF9C0180
:1001A0009CE5EEE3F1E0BE016F5F7F4FDB01019064
:1001B0000D929A95E1F7FB0101900020E9F7319744
:1001C000AF01461B570BC9010C960E944A02C45A44
:1001D000DF4F0FB6F894DEBF0FBECDBFDF91CF91DA
:1001E0000895EF92FF920F931F93CF93DF93CDB7B4
:1001F000DEB7CE56D1090FB6F894DEBF0FBECDBF25
:100200008C01FC0185818F9384818F9383818F93EF
:1002100082818F935F934F937F936F938AE991E0ED
:100220009F938F93CE0101967C019F938F930E94A1
:100230008602482FB701C8010C960E944A020FB6E9
:10024000F894DEBF0FBECDBFC259DF4F0FB6F89492
:10025000DEBF0FBECDBFDF91CF911F910F91FF90F9
:10026000EF900895EF92FF920F931F93CF93DF9338
:10027000EC01F12CE12C10E000E0E114F10419F4A0
:1002800003301105D9F08A859B85809FA001819F4D
:10029000500D909F500D112428853985420F531F12
:1002A0008E9DB0018F9D700D9E9D700D11248E81CD
:1002B0009F81680F791FCE010E94F1000F5F1F4FD1
:1002C00004301105D1F68FEFE81AF80A88E0E81635
:1002D000F10489F64EEA51E06EE873E0CE01DF9159
:1002E000CF911F910F91FF90EF900C94F100CF935D
:1002F000DF93CDB7DEB7C955D1090FB6F894DEBF8D
:100300000FBECDBF9C0199E5E4EFF1E0BE016F5F48
:100310007F4FDB0101900D929A95E1F7FB0101906F
:100320000020E9F73197AF01461B570BC9010C9626
:100330000E944A02C75ADF4F0FB6F894DEBF0FBEC5
:10034000CDBFDF91CF910895CF93DF93CDB7DEB7C7
:10035000CD56D1090FB6F894DEBF0FBECDBF9C01BC
:100360009DE6EDE4F2E0BE016F5F7F4FDB0101909F
:100370000D929A95E1F7FB0101900020E9F7319782
:10038000AF01461B570BC9010C960E944A02C35984
:10039000DF4F0FB6F894DEBF0FBECDBFDF91CF9118
:1003A0000895EF92FF920F931F93CF93DF93CDB7F2
:1003B000DEB7CA55D1090FB6F894DEBF0FBECDBF68
:1003C0008C015F934F937F936F938AEB92E09F939F
:1003D0008F93CE0101967C019F938F930E9486029A
:1003E000482FB701C8010C960E944A020FB6F89434
:1003F000DEBF0FBECDBFC65ADF4F0FB6F894DEBFCB
:100400000FBECDBFDF91CF911F910F91FF90EF9065
:1004100008950895089562E00C960C94430263E0F9
:100420000C960C944302CF93DF93D82FC92F0E94D0
:100430000B028D2F9C2F0E9470008D2F9C2F0E94ED
:10044000C4008D2F9C2F0E9432018D2F9C2F0E9463
:1004500077018D2F9C2F0E94A4018D2F9C2FDF915F
:10046000CF910C940F021092C5008FEC8093C400C2
:10047000E1ECF0E0808188618083E2ECF0E0808153
:100480008660808308958091C00085FFFCCF6093D3
:10049000C6000895EF92FF920F931F93CF93DF93BF
:1004A000182F092FEB017B01E40EF11CCE15DF059F
:1004B00039F4DF91CF911F910F91FF90EF90089544
:1004C0006991812F902F0E944302F0CF8091C0004C
:1004D00087FFFCCF8091C6000895CDB7DEB72D977A
:1004E0000FB6F894DEBF0FBECDBFCE0101960E94BD
:1004F0005500CE0101960E94130290E080E02D96F7
:100500000FB6F894DEBF0FBECDBF0895AEE0B0E0E9
:10051000ECE8F2E00C942E050D891E8986E08C83B0
:100520001A8309838FEF9FE79E838D83AE01475E19
:100530005F4F6F89788DCE0101960E94A9022F81AD
:100540003885020F131FF80110822E96E4E00C94F8
:100550004A05AFE0B0E0EFEAF2E00C9420057C0140
:100560003B018A01DC0117961C921E921697139686
:100570008C9181FFBEC19AE0292EFE0131964F0178
:10058000D70113969C91F30193FD859193FF81917F
:100590003F01882309F444C1853239F493FD8591E4
:1005A00093FF81913F01853229F4B70190E00E94C9
:1005B0009204E6CFB12C412C512CBFE1B51538F097
:1005C0008B3209F188F4803201F1833221F157FC3A
:1005D0003AC020ED280F2A3040F556FE1FC0B29CCD
:1005E000200D1124B22E06C08D3291F0803379F7A0
:1005F000689450F8F30193FD859193FF81913F0139
:100600008111DBCF20C0689451F8689452F8F2CF82
:10061000689453F8EFCF689454F8ECCF429C200DC7
:100620001124422E689455F8E5CF8E3229F456FCF9
:10063000F7C0689456F8DECF8C3619F4689457F8F2
:10064000D9CF8836B9F2982F9F7D95549330C0F05A
:10065000833681F18337A1F1833509F05BC0D8017E
:10066000CD90DD908D016B2D70E056FC02C06FEFD8
:100670007FEFC6010E947C045C01689457F80AC0B1
:100680000C5F1F4FEFE3E983AA24A394B12C64010C
:10069000E89457F853FE29C0342CA114B10451F545
:1006A000332009F46DCFB70180E290E00E949204FC
:1006B0003A94F6CFD8018C9189830E5F1F4FE4CF17
:1006C000F801C190D1908F016B2D70E056FC02C0F3
:1006D0006FEF7FEFC6010E9487045C01D9CFB7019D
:1006E00080E290E00E9492044A944A141B0409F0AC
:1006F000B0F7D2CFF60157FC859157FE81916F017B
:10070000B70190E00E94920431103A94B1E0AB1A24
:10071000B108C3CF843619F0893609F071C0F801E9
:1007200057FE67C061917191819191918F01E52D83
:10073000EF76DE2E97FF09C09095809570956195B4
:100740007F4F8F4F9F4F6894D7F82AE030E0A40185
:100750000E94C204C82EC818AC2C5D2CD6FE0CC05A
:10076000E89450F8CB1440F4D4FE05C0D2FC03C08A
:100770005D2D5E7E552EAB2C54FE93C0FE01EC0D1C
:10078000F11D8081803309F085C0652D697E562E6C
:10079000752D7870372E53FC93C050FE8DC0BC2C45
:1007A000A41410F4B40CBA1854FE90C0B70180E33E
:1007B00090E00E94920452FE07C088E751FC88E551
:1007C00090E0B7010E949204CB1408F48BC0CA9445
:1007D000D12C8FEFC81AD80AC80CD91CD6018E911B
:1007E0006D01B70190E00E9492048C149D04B1F752
:1007F00057CF61917191072E000C880B990B96CF02
:10080000D52CE894D4F82AE0853729F1F52DF97F25
:10081000DF2E8037A1F058F48835A1F08F36D1F063
:10082000F701868197812F96E2E10C943C05883789
:10083000B9F7D4FE02C06894D2F820E10CC06894E5
:10084000D4F8F7CF54FE03C02F2F2660D22E20E11C
:1008500032E002C028E030E0F801D7FE15C0419137
:100860005191619171914C875D876E877F878F0170
:10087000A4016C857D858E859F850E94C204C82E4B
:10088000C818E894D7F868CF81919191AC0170E0D5
:1008900060E0E9CF52FC02C0A3947ACFA394A39462
:1008A00077CF852D867809F473CFF6CFB70180E234
:1008B00090E00E949204A394A414C0F3312C74CF4E
:1008C000342C3A18A41408F46FCFF8CF852D86780D
:1008D00009F47ACF8BE251FE80E257FC8DE2B7013A
:1008E00090E070CFB70180E390E00E949204BA9448
:1008F0006BCF8FEF9FEF97CFFC0105906150704059
:100900000110D8F7809590958E0F9F1F0895FC01D8
:100910006150704001900110D8F7809590958E0F2E
:100920009F1F08950F931F93CF93DF93182F092FC5
:10093000EB018B8181FD09C01FEF0FEF812F902FFD
:10094000DF91CF911F910F91089582FF14C02E81E6
:100950003F818C819D81281739073CF4E881F9811A
:10096000CF0101969983888310838E819F810196A0
:100970009F838E83E3CFE885F985812F0995892BA5
:10098000A1F3DACFFA01AA27283051F1203181F101
:10099000E8946F936E7F6E5F7F4F8F4F9F4FAF4F87
:1009A000B1E03ED0B4E03CD0670F781F891F9A1F9A
:1009B000A11D680F791F8A1F911DA11D6A0F711D4E
:1009C000811D911DA11D20D009F468943F912AE05A
:1009D000269F11243019305D3193DEF6CF01089542
:1009E000462F4770405D4193B3E00FD0C9F7F6CF73
:1009F000462F4F70405D4A3318F0495D31FD40523B
:100A0000419302D0A9F7EACFB4E0A69597958795D0
:100A100077956795BA95C9F70097610571050895AF
:100A20009B01AC010A2E069457954795379527955B
:100A3000BA95C9F7620F731F841F951FA01D0895F3
:100A40002F923F924F925F926F927F928F929F92DE
:100A5000AF92BF92CF92DF92EF92FF920F931F93CC
:100A6000CF93DF93CDB7DEB7CA1BDB0B0FB6F8947D
:100A7000DEBF0FBECDBF09942A88398848885F84BD
:100A80006E847D848C849B84AA84B984C884DF802E
:100A9000EE80FD800C811B81AA81B981CE0FD11D12
:100AA0000FB6F894DEBF0FBECDBFED010895F894E8
:020AB000FFCF76
:100AB2003C7376672077696474683D223130303048
:100AC20022206865696768743D22363030222076BC
:100AD200696577426F783D223020302031373030DF
:100AE20020363030223E003C2F7376673E003C7247
:100AF20065637420783D2239362220793D223438CC
:100B0200222077696474683D223933302220686577
:100B1200696768743D2234383022207374726F6BB7
:100B2200653D22626C61636B22207374726F6B6528
:100B32002D77696474683D2231222066696C6C3DB0
:100B4200227768697465222F3E003C7265637420C7
:100B5200783D2225642220793D222564222077696E
:100B62006474683D22256422206865696768743D63
:100B720022256422207374726F6B653D22626C6160
:100B8200636B22207374726F6B652D77696474686E
:100B92003D2231222066696C6C3D22626C61636B7E
:100BA200222F3E003C726563742020783D22323150
:100BB200302220793D2234333022207769647468F0
:100BC2003D22313022206865696768743D223130E8
:100BD20022207374726F6B653D22726564222073EA
:100BE20074726F6B652D77696474683D22312220BF
:100BF20066696C6C3D22726564222F3E003C74650E
:100C0200787420783D2239362220793D22333622EB
:100C120020666F6E742D66616D696C793D2261721A
:100C220069616C2220666F6E742D73697A653D224C
:100C32003230222066696C6C3D22626C7565223E00
:100C42002073656374696F6E203031202D2D20C3AF
:100C5200A971756970652030313038202D2D204200
:100C62004F423C2F746578743E003C636972636C3A
:100C7200652063783D222564222063793D22256424
:100C82002220723D22323022207374726F6B653DD6
:100C920022626C61636B22207374726F6B652D77B5
:100CA200696474683D2234222066696C6C3D226757
:080CB20072617922202F3E003F
:00000001FF
