:100000000C943E000C9453000C9453000C94530039
:100010000C9453000C9453000C9453000C94530014
:100020000C9453000C9453000C9453000C94530004
:100030000C9453000C9453000C9453000C945300F4
:100040000C9453000C9453000C9453000C945300E4
:100050000C9453000C9453000C9453000C945300D4
:100060000C9453000C9453000C9453000C945300C4
:100070000C9453000C9453000C94530011241FBE95
:10008000CFEFD8E0DEBFCDBF13E0A0E0B1E0EEEDF2
:10009000F5E102C005900D92A034B107D9F70E9496
:1000A000F8070C94ED0A0C940000089580EA809300
:1000B00000011092B90080E28093B8000895FC011D
:1000C00080E88083CF010C945600982F9370891399
:1000D00005C0880F806A8093000108958FEF08950E
:1000E000FA0194EA24E89093BC008091BC0087FF59
:1000F000FCCF809100018093BB002093BC008091D5
:10010000BC0087FFFCCF8091B900883161F784EA99
:100110008093BC008091BC0087FFFCCF80910001E0
:100120008093BB0084E88093BC008091BC0087FF73
:10013000FCCF7093BB0084E88093BC008091BC002E
:1001400087FFFCCF6093BB0084E88093BC00809164
:10015000BC0087FFFCCF8091BC0087FFFCCF84EA06
:100160008093BC008091BC0087FFFCCF8091000190
:100170008F5F8093BB0084E88093BC008091BC00BB
:1001800087FFFCCF84E88093BC008091BC0087FF90
:10019000FCCF8091BB00808384E98093BC0080E029
:1001A000089594EA34E89093BC008091BC0087FFE6
:1001B000FCCF809100018093BB003093BC00809104
:1001C000BC0087FFFCCF8091B900883161F784EAD9
:1001D0008093BC008091BC0087FFFCCF8091000120
:1001E0008093BB0084E88093BC008091BC0087FFB3
:1001F000FCCF7093BB0084E88093BC008091BC006E
:1002000087FFFCCF6093BB0084E88093BC008091A3
:10021000BC0087FFFCCF84EA8093BC008091BC00C7
:1002200087FFFCCF809100018F5F8093BB0084E843
:100230008093BC008091BC0087FFFCCF84EC21112F
:1002400005C084E98093BC0080E00895213009F462
:1002500084E88093BC009091BC0097FFFCCFFA012A
:100260009091BB0091932150AF01E9CF94EA24E82B
:100270009093BC008091BC0087FFFCCF809100016F
:100280008093BB002093BC008091BC0087FFFCCF13
:100290008091B900883161F784EA8093BC00809135
:1002A000BC0087FFFCCF809100018093BB0084E8F5
:1002B0008093BC008091BC0087FFFCCF7093BB0093
:1002C00084E88093BC008091BC0087FFFCCF6093E2
:1002D000BB0084E88093BC008091BC0087FFFCCF0A
:1002E0004093BB0084E88093BC008091BC0087FFF2
:1002F000FCCF84E98093BC0080E00895FB01260FC9
:10030000372F311DDC018C918150990B862B9F2B4F
:100310002817390718F09C012F5F3F4F822F8E1B43
:1003200024EA34E82093BC009091BC0097FFFCCFF6
:10033000909100019093BB003093BC009091BC0061
:1003400097FFFCCF9091B900983161F794EA9093B0
:10035000BC009091BC0097FFFCCF9091000190935E
:10036000BB0094E89093BC009091BC0097FFFCCF39
:10037000F093BB0094E89093BC009091BC0097FF71
:10038000FCCFE093BB0094E89093BC009091BC003C
:1003900097FFFCCF982F24E8911104C094E9909323
:1003A000BC000895FA0131913093BB002093BC004A
:1003B0003091BC0037FFFCCF9150AF01EDCFDF9201
:1003C000EF92FF920F931F93CF93DF93D82ED92FE5
:1003D0007B018A01C22F2C2FA801B7018D2D9D2FE3
:1003E0000E947E01282F30E0E20EF31EC81B020F90
:1003F000131FC111F0CF80E0DF91CF911F910F91BA
:10040000FF90EF90DF900895CF93DF93EC0188E0A9
:1004100090E09983888384E090E09B838A838AE0DC
:1004200090E09D838C839F838E8382ED90E09987FB
:10043000888782E890E09B878A8784E690E09D87A2
:100440008C878EE690E09F878E878AE590E0998B77
:10045000888B9B8B8A8B8FEF8C8BCE0146960E946C
:100460005F00CE014596DF91CF910C94BE07CF93EC
:10047000DF93CDB7DEB7E7970FB6F894DEBF0FBEB8
:10048000CDBF9C0197E3E1E0F1E0BE016F5F7F4FDC
:10049000DB0101900D929A95E1F7FB01019000209C
:1004A000E9F73197AF01461B570BC90145960E94EA
:1004B000D507E7960FB6F894DEBF0FBECDBFDF912C
:1004C000CF910895CF93DF9300D000D000D00F924A
:1004D000CDB7DEB79C0197E0E8E3F1E0BE016F5FC6
:1004E0007F4FDB0101900D929A95E1F7FB0101909E
:1004F0000020E9F73197AF01461B570BC90145961C
:100500000E94D50727960FB6F894DEBF0FBECDBF69
:10051000DF91CF910895CF93DF93CDB7DEB7CC5560
:10052000D1090FB6F894DEBF0FBECDBF9C019CE58C
:10053000EFE3F1E0BE016F5F7F4FDB0101900D92B1
:100540009A95E1F7FB0101900020E9F73197AF019F
:10055000461B570BC90145960E94D507C45ADF4F69
:100560000FB6F894DEBF0FBECDBFDF91CF910895D7
:10057000EF92FF920F931F93CF93DF9300D0CDB7ED
:10058000DEB78C012DB73EB73A832983FC018685FF
:100590009785281B390B0FB6F8943EBF0FBE2DBFB1
:1005A0008DB79EB701967C0187818F9386818F934B
:1005B00085818F9384818F935F934F937F936F9304
:1005C0008BE991E09F938F93FF92EF920E941C081A
:1005D000482FB701C80145960E94D507EDB7FEB771
:1005E0003C960FB6F894FEBF0FBEEDBF29813A814D
:1005F0000FB6F8943EBF0FBE2DBF0F900F90DF9146
:10060000CF911F910F91FF90EF900895EF92FF927D
:100610000F931F93CF93DF93EC0110E0E12EF12CA9
:1006200088819981E816F90684F1DF91CF911F91B5
:100630000F91FF90EF900895111102C00330D9F08F
:100640002C853D85289FA001299F500D389F500D76
:1006500011248A859B85480F591F2E9DB0012F9D1F
:10066000700D3E9D700D112488859985680F791F46
:10067000CE010E94B8020F5F802F90E02A813B815B
:1006800082179307CCF21F5FC9CF00E0F5CFCF935D
:10069000DF93CDB7DEB7C855D1090FB6F894DEBFEA
:1006A0000FBECDBF9C0198E5E5EFF1E0BE016F5FA5
:1006B0007F4FDB0101900D929A95E1F7FB010190CC
:1006C0000020E9F73197AF01461B570BC90145964A
:1006D0000E94D507C85ADF4F0FB6F894DEBF0FBE91
:1006E000CDBFDF91CF910895CF93DF93CDB7DEB724
:1006F000CD56D1090FB6F894DEBF0FBECDBF9C0119
:100700009DE6EDE4F2E0BE016F5F7F4FDB010190FB
:100710000D929A95E1F7FB0101900020E9F73197DE
:10072000AF01461B570BC90145960E94D507C35917
:10073000DF4F0FB6F894DEBF0FBECDBFDF91CF9174
:100740000895EF92FF920F931F93CF93DF9300D002
:10075000CDB7DEB78C012DB73EB73A832983FC01B4
:1007600080899189281B390B0FB6F8943EBF0FBEC4
:100770002DBF8DB79EB701967C015F934F937F93FA
:100780006F938AEB92E09F938F93FF92EF920E9478
:100790001C08482FB701C80145960E94D507EDB740
:1007A000FEB738960FB6F894FEBF0FBEEDBF298195
:1007B0003A810FB6F8943EBF0FBE2DBF0F900F9039
:1007C000DF91CF911F910F91FF90EF900895EF92DD
:1007D000FF920F931F93CF93DF938C01F42EEB01C5
:1007E000E12CEF1007C0DF91CF911F910F91FF9087
:1007F000EF900895F801848595852A813B81829F39
:10080000A001839F500D929F500D112422853385A6
:10081000420F531F28813981829FB001839F700D41
:10082000929F700D112480859185680F791FC801F2
:100830000E94A103E3942496D4CF9F92AF92BF92DB
:10084000CF92DF92EF92FF920F931F93CF93DF939C
:1008500000D00F92CDB7DEB78C016B01B12CA12C6B
:100860007C0186E1E80EF11C992493949B0C6B2D7E
:1008700070E0AE014D5F5F4FC7010E947000EFE076
:10088000F7E23197F1F700C00000B394B394692DFB
:1008900070E0AE014E5F5F4FC7010E9470008FE0B5
:1008A00097E20197F1F700C0000094E0A99EF001E3
:1008B0001124A394EC0DFD1D8A8190E02B8130E082
:1008C00031832083938382836B2D70E0AE014F5F71
:1008D0005F4FC7010E947000EFE0F7E23197F1F738
:1008E00000C00000F801948989819813BDCF8A2D3A
:1008F0000F900F900F90DF91CF911F910F91FF906C
:10090000EF90DF90CF90BF90AF909F9008954F925F
:100910005F926F927F928F929F92AF92BF92CF928F
:10092000DF92EF92FF920F931F93CF93DF9300D04C
:10093000CDB7DEB77C014B01742E2DB73EB73A839D
:100940002983FC0182899389281B390B0FB6F894FF
:100950003EBF0FBE2DBF0DB71EB70F5F1F4F502EEE
:10096000412E68E073E0C8010E941508570135E187
:10097000A30EB11C44E1B801C5010E94D507640172
:10098000612C8DE1882E83E0982E671024C064E2EC
:1009900073E0C8010E9415084AE1B801C5010E9430
:1009A000D50789819A810FB6F8949EBF0FBE8DBF7F
:1009B0000F900F90DF91CF911F910F91FF90EF90CB
:1009C000DF90CF90BF90AF909F908F907F906F906F
:1009D0005F904F900895F70124853585F601428197
:1009E0005381249FC001259F900D349F900D1124A9
:1009F000F70142855385840F951F9F938F93F601CE
:100A000040815181249FC001259F900D349F900DFE
:100A10001124F70120853185820F931F9F938F93B7
:100A20009F928F924F925F920E941C08482F652DD3
:100A3000742DC5010E94D5076394F4E0CF0ED11C3C
:100A40002DB73EB7285F3F4F0FB6F8943EBF0FBE9D
:100A50002DBF9BCFCF93DF939B01FB0191E080E003
:100A6000941718F0DF91CF91089554E0859FD0013D
:100A70001124A20FB31FC481D5816D917C91119770
:100A8000C617D7074CF4C681D78112966D917C9119
:100A9000C617D7070CF4892F9F5F3496E1CF4F928A
:100AA0005F926F927F928F929F92AF92BF92CF92FE
:100AB000DF92EF92FF920F931F934A015B0139017E
:100AC000A601F801E819F9099701261B370BE29FE7
:100AD000C001E39F900DF29F900D11244819590910
:100AE000B3016A197B09469F9001479F300D569FBD
:100AF000300D1124821B930B1F910F91FF90EF90EB
:100B0000DF90CF90BF90AF909F908F907F906F902D
:100B10005F904F900895CF92DF92EF92FF920F93E4
:100B20001F93D901401B510B9B012A1B3B0B449F78
:100B3000B001459F700D700D1124229FC001239FAD
:100B4000900D900D1124860F971F1F910F91FF900C
:100B5000EF90DF90CF9008950F931F93CF93DF9383
:100B6000CB01E901DA01EC91B4E0EB9FF001112433
:100B7000E60FF71F4081518162817381A88124E0D3
:100B8000A29FD0011124A80FB91F0D911D912D9185
:100B90003C9100831183228333832881A4E02A9F20
:100BA00090011124820F931FFC01408351836283C3
:100BB0007383DF91CF911F910F9108954F925F92B0
:100BC0006F927F928F929F92AF92BF92EF92FF921D
:100BD0000F931F93CF93DF937B01FA012801390113
:100BE00041E02081421798F5042F10E0B4E04B9FBC
:100BF000E0011124CE0DDF1D51E01DC06881798117
:100C000064157505B9F46A817B816615770591F4E1
:100C1000220F331F220F331F2E0D3F1DD9018D9040
:100C20009D90AD90BC9088829982AA82BB822081DF
:100C3000215020835F5F252F30E060816150770B6A
:100C4000601B710B26173707CCF24F5FCACFDF91BD
:100C5000CF911F910F91FF90EF90BF90AF909F9019
:100C60008F907F906F905F904F9008952F923F925A
:100C70004F925F926F927F928F929F92AF92BF92AC
:100C8000CF92DF92EF92FF920F931F93CF93DF9358
:100C9000CDB7DEB72B970FB6F894DEBF0FBECDBF32
:100CA000882E792E5B014B836801790199249394F6
:100CB000AE014E5F5F4F9E012F5F3F4FCE01039607
:100CC0004E835F83522E432E382E292E9A828B819B
:100CD0009816C8F02B960FB6F894DEBF0FBECDBFA6
:100CE000DF91CF911F910F91FF90EF90DF90CF9008
:100CF000BF90AF909F908F907F906F905F904F903C
:100D00003F902F900895292D30E03987288734E0CF
:100D1000939EC0011124A501480F591F5D834C8388
:100D2000662463946982862D90E02B812150330BD9
:100D3000E885F9852E1B3F0B8217930714F09394D7
:100D4000C5CF880F991F880F991FF501E80FF91F6C
:100D5000AC81BD812D913C91119712968D919C9102
:100D6000A081B18102811381B9016C197D09A801AB
:100D70004E195F09649FF001659FF00D749FF00D9F
:100D80001124FB87EA87FD01EC19FD09BC016E19EE
:100D90007F09E69FA001E79F500DF69F500D11249B
:100DA0006A857B85641B750B77FF17C0252D342D55
:100DB0004E815F81B501882D972D0E94AC05AC81D5
:100DC000BD810D911D912D913C91432D522DB50169
:100DD000882D972D0E94DE052FC0672B69F5F6013F
:100DE000E21BF30B9F01A701481B590BF601EA1BFD
:100DF000FB0BC701801B910BEE9FB001EF9F700DA5
:100E0000700D1124889FF001899FF00DF00D1124C1
:100E10006E0F7F1F229FC001239F900D900D112404
:100E2000449F9001459F300D300D1124820F931F78
:100E3000681779070CF4BACF639474CFBF92CF923E
:100E4000DF92EF92FF920F931F93CF93DF93CDB773
:100E5000DEB7A0970FB6F894DEBF0FBECDBF6C0112
:100E60007B01B42E0E942A0594E0899FF001112491
:100E7000EE0DFF1D008111812281338109831A83C8
:100E80002B833C834B2DB701C6010E943606F70128
:100E900084819581A681B7818D839E83AF83B88736
:100EA00080859185A285B38589879A87AB87BC8722
:100EB00043E0BE016F5F7F4FC6010E948704A0968A
:100EC0000FB6F894DEBF0FBECDBFDF91CF911F915B
:100ED0000F91FF90EF90DF90CF90BF90089562E068
:100EE00045960C94CE0763E045960C94CE0764E0DB
:100EF00045960C94CE07FF920F931F93CF93DF93E9
:100F0000CDB7DEB7A0970FB6F894DEBF0FBECDBF4A
:100F10008C01BE016F5F7F4F0E941D04F82EC80137
:100F20000E946F07C8010E943702C8010E948B020D
:100F3000C8010E940603C8010E944703C8010E941D
:100F400074034F2DBE016F5F7F4FC8010E94E703FE
:100F50004F2DBE016F5F7F4FC8010E941E07C80161
:100F60000E947307A0960FB6F894DEBF0FBECDBFE8
:100F7000DF91CF911F910F91FF9008951092C500BE
:100F80008FEC8093C400E1ECF0E080818861808385
:100F9000E2ECF0E080818660808308958091C0005B
:100FA00085FFFCCF6093C6000895EF92FF920F93E8
:100FB0001F93CF93DF93182F092FEB017B01E40ED2
:100FC000F11CCE15DF0539F4DF91CF911F910F9100
:100FD000FF90EF9008956991812F902F0E94CE0786
:100FE000F0CF8091C00087FFFCCF8091C6000895AC
:100FF000CDB7DEB767970FB6F894DEBF0FBECDBF93
:10100000CE0101960E940402CE0101960E947B0748
:10101000CE0147960E94550090E080E067960FB69B
:10102000F894DEBF0FBECDBF0895FB01DC01019037
:101030000D920020E1F70895AEE0B0E0E2E2F8E0C2
:101040000C94C40A0D891E8986E08C831A83098357
:101050008FEF9FE79E838D83AE01475E5F4F6F8961
:10106000788DCE0101960E943F082F813885020FAE
:10107000131FF80110822E96E4E00C94E00AAFE012
:10108000B0E0E5E4F8E00C94B60A7C013B018A018B
:10109000DC0117961C921E92169713968C9181FF75
:1010A000BEC19AE0292EFE0131964F01D701139659
:1010B0009C91F30193FD859193FF81913F018823DA
:1010C00009F444C1853239F493FD859193FF8191F0
:1010D0003F01853229F4B70190E00E94280AE6CF4B
:1010E000B12C412C512CBFE1B51538F08B3209F1F0
:1010F00088F4803201F1833221F157FC3AC020EDAF
:10110000280F2A3040F556FE1FC0B29C200D112436
:10111000B22E06C08D3291F0803379F7689450F882
:10112000F30193FD859193FF81913F018111DBCF05
:1011300020C0689451F8689452F8F2CF689453F83C
:10114000EFCF689454F8ECCF429C200D1124422E2E
:10115000689455F8E5CF8E3229F456FCF7C06894B0
:1011600056F8DECF8C3619F4689457F8D9CF883604
:10117000B9F2982F9F7D95549330C0F0833681F15A
:101180008337A1F1833509F05BC0D801CD90DD90A4
:101190008D016B2D70E056FC02C06FEF7FEFC60132
:1011A0000E94120A5C01689457F80AC00C5F1F4F36
:1011B000EFE3E983AA24A394B12C6401E89457F8DF
:1011C00053FE29C0342CA114B10451F5332009F485
:1011D0006DCFB70180E290E00E94280A3A94F6CFE2
:1011E000D8018C9189830E5F1F4FE4CFF801C19025
:1011F000D1908F016B2D70E056FC02C06FEF7FEF36
:10120000C6010E941D0A5C01D9CFB70180E290E0BF
:101210000E94280A4A944A141B0409F0B0F7D2CF5E
:10122000F60157FC859157FE81916F01B70190E05F
:101230000E94280A31103A94B1E0AB1AB108C3CF2A
:10124000843619F0893609F071C0F80157FE67C07D
:1012500061917191819191918F01E52DEF76DE2E53
:1012600097FF09C090958095709561957F4F8F4F3E
:101270009F4F6894D7F82AE030E0A4010E94580AF2
:10128000C82EC818AC2C5D2CD6FE0CC0E89450F8C3
:10129000CB1440F4D4FE05C0D2FC03C05D2D5E7EAD
:1012A000552EAB2C54FE93C0FE01EC0DF11D808138
:1012B000803309F085C0652D697E562E752D7870B6
:1012C000372E53FC93C050FE8DC0BC2CA41410F4D8
:1012D000B40CBA1854FE90C0B70180E390E00E94AD
:1012E000280A52FE07C088E751FC88E590E0B70164
:1012F0000E94280ACB1408F48BC0CA94D12C8FEF1B
:10130000C81AD80AC80CD91CD6018E916D01B70134
:1013100090E00E94280A8C149D04B1F757CF619188
:101320007191072E000C880B990B96CFD52CE89461
:10133000D4F82AE0853729F1F52DF97FDF2E8037A3
:10134000A1F058F48835A1F08F36D1F0F7018681ED
:1013500097812F96E2E10C94D20A8837B9F7D4FE30
:1013600002C06894D2F820E10CC06894D4F8F7CF9A
:1013700054FE03C02F2F2660D22E20E132E002C09F
:1013800028E030E0F801D7FE15C0419151916191FC
:1013900071914C875D876E877F878F01A4016C8573
:1013A0007D858E859F850E94580AC82EC818E894AE
:1013B000D7F868CF81919191AC0170E060E0E9CFFE
:1013C00052FC02C0A3947ACFA394A39477CF852D27
:1013D000867809F473CFF6CFB70180E290E00E94DF
:1013E000280AA394A414C0F3312C74CF342C3A18D7
:1013F000A41408F46FCFF8CF852D867809F47ACF3E
:101400008BE251FE80E257FC8DE2B70190E070CF95
:10141000B70180E390E00E94280ABA946BCF8FEF67
:101420009FEF97CFFC010590615070400110D8F7F5
:10143000809590958E0F9F1F0895FC01615070401C
:1014400001900110D8F7809590958E0F9F1F0895F9
:101450000F931F93CF93DF93182F092FEB018B81ED
:1014600081FD09C01FEF0FEF812F902FDF91CF91EA
:101470001F910F91089582FF14C02E813F818C81AE
:101480009D81281739073CF4E881F981CF01019645
:101490009983888310838E819F8101969F838E8399
:1014A000E3CFE885F985812F0995892BA1F3DACF60
:1014B000FA01AA27283051F1203181F1E8946F9385
:1014C0006E7F6E5F7F4F8F4F9F4FAF4FB1E03ED02B
:1014D000B4E03CD0670F781F891F9A1FA11D680FC9
:1014E000791F8A1F911DA11D6A0F711D811D911DFC
:1014F000A11D20D009F468943F912AE0269F112471
:101500003019305D3193DEF6CF010895462F4770D4
:10151000405D4193B3E00FD0C9F7F6CF462F4F702F
:10152000405D4A3318F0495D31FD4052419302D08D
:10153000A9F7EACFB4E0A695979587957795679533
:10154000BA95C9F700976105710508959B01AC0133
:101550000A2E06945795479537952795BA95C9F75A
:10156000620F731F841F951FA01D08952F923F9235
:101570004F925F926F927F928F929F92AF92BF92A3
:10158000CF92DF92EF92FF920F931F93CF93DF934F
:10159000CDB7DEB7CA1BDB0B0FB6F894DEBF0FBEAC
:1015A000CDBF09942A88398848885F846E847D84F9
:1015B0008C849B84AA84B984C884DF80EE80FD80FB
:1015C0000C811B81AA81B981CE0FD11D0FB6F89471
:0E15D000DEBF0FBECDBFED010895F894FFCF32
:1015DE00A03C7376672077696474683D22313030A1
:1015EE003022206865696768743D223630302220CB
:1015FE0076696577426F783D223020302031373062
:10160E003020363030223E003C2F7376673E003C51
:10161E007265637420783D2239362220793D22345A
:10162E0038222077696474683D223933302220686D
:10163E0065696768743D2234383022207374726F86
:10164E006B653D22626C61636B22207374726F6BEB
:10165E00652D77696474683D2231222066696C6C51
:10166E003D227768697465222F3E003C7265637473
:10167E0020783D2225642220793D22256422207780
:10168E00696474683D222564222068656967687400
:10169E003D22256422207374726F6B653D22626C4D
:1016AE0061636B22207374726F6B652D776964743E
:1016BE00683D2231222066696C6C3D22626C61634A
:1016CE006B222F3E003C7265637420783D223231CE
:1016DE00302220793D2234333022207769647468B9
:1016EE003D22313022206865696768743D223130B1
:1016FE0022207374726F6B653D22726564222073B3
:10170E0074726F6B652D77696474683D2231222087
:10171E0066696C6C3D22726564222F3E003C7465D6
:10172E00787420783D2239362220793D22333622B4
:10173E0020666F6E742D66616D696C793D226172E3
:10174E0069616C2220666F6E742D73697A653D2215
:10175E003230222066696C6C3D22626C7565223EC9
:10176E002073656374696F6E203031202D2D20C378
:10177E00A971756970652030313038202D2D2042C9
:10178E004F423C2F746578743E003C636972636C03
:10179E00652063783D222564222063793D222564ED
:1017AE002220723D22323022207374726F6B653D9F
:1017BE0022626C61636B22207374726F6B652D777E
:1017CE00696474683D2234222066696C6C3D226720
:1017DE0072617922202F3E003C706F6C79676F6EBC
:1017EE0020706F696E74733D2220302C00256420AA
:1017FE0025642C003022207374796C653D22666955
:10180E006C6C3A20677265656E3B22202F3E00009D
:00000001FF
