:100000000C943E000C9453000C9453000C94530039
:100010000C9453000C9453000C9453000C94530014
:100020000C9453000C9453000C9453000C94530004
:100030000C9453000C9453000C9453000C945300F4
:100040000C9453000C9453000C9453000C945300E4
:100050000C9453000C9453000C9453000C945300D4
:100060000C9453000C9453000C9453000C945300C4
:100070000C9453000C9453000C94530011241FBE95
:10008000CFEFD8E0DEBFCDBF11E0A0E0B1E0E6E108
:10009000F3E002C005900D92A230B107D9F70E949B
:1000A00046010C9489010C940000982F81E0913452
:1000B00028F4983208F480E0880F08950895CF93CB
:1000C000DF93EC010E941A0181E48A8388E28B832A
:1000D00084E68C830898DF91CF9108950F931F9346
:1000E000CF93DF9300D000D000D0CDB7DEB78C0126
:1000F00025E030E03E832D8319821A821B821C8208
:1001000060E0C8010E942301969587959695879592
:1001100029813A814B815C81280F311D411D511D80
:1001200029833A834B835C834D815E814150510921
:100130005E834D83452B21F769817A818B819C8178
:1001400025E030E040E050E00E946701822F2696D3
:100150000FB6F894DEBF0FBECDBFDF91CF911F91D8
:100160000F910895CF93DF93EC010E946E00282F2A
:100170008A81281760F481E090E03B81231710F416
:1001800090E080E0880F991FDF91CF91089581E082
:1001900090E0FACFCF93DF93EC010E946E00282FFE
:1001A00081E09C81291708F480E0DF91CF910895C8
:1001B0000E94B2009C0181E0232B09F080E00895A9
:1001C0001092C5008FEC8093C400E1ECF0E08081D8
:1001D00088618083E2ECF0E080818660808308950E
:1001E0008091C00085FFFCCF6093C6000895EF9218
:1001F000FF920F931F93CF93DF93182F092FEB01DB
:100200007B01E40EF11CCE15DF0539F4DF91CF91AF
:100210001F910F91FF90EF9008956991812F902F7A
:100220000E94F000F0CF8091C00087FFFCCF80914A
:10023000C600089510927C0086E880937A000895A5
:1002400010927A00089580917C00807E80937C00DB
:1002500080917C006770682B60937C0080917A00AD
:10026000806480937A0080917A0084FFFCCF809133
:100270007A00806180937A002091780080917900E3
:1002800090E0982F8827820F911D089500D000D00C
:1002900000D0CDB7DEB7CE0101967C010E945F0091
:1002A0008E010A5F1F4FC8010E94E000C7010E9433
:1002B0006E00682FC8010E94F0009FE72AE186E0E7
:1002C000915020408040E1F700C00000EFCFA1E254
:1002D0001A2EAA1BBB1BFD010DC0AA1FBB1FEE1FC0
:1002E000FF1FA217B307E407F50720F0A21BB30B0B
:1002F000E40BF50B661F771F881F991F1A9469F787
:1003000060957095809590959B01AC01BD01CF01E2
:060310000895F894FFCFF0
:02031600FFFFE7
:00000001FF
